:020000040000FA
:100000000C9462000C948A000C948A000C948A0070
:100010000C948A000C948A000C948A000C948A0038
:100020000C948A000C948A000C948A000C948A0028
:100030000C948A000C948A000C948A000C948A0018
:100040000C94B1040C948A000C947F040C94590411
:100050000C948A000C948A000C948A000C948A00F8
:100060000C948A000C948A000000000024002700F1
:100070002A0000000000250028002B0000000000DE
:1000800023002600290004040404040404040202DA
:100090000202020203030303030301020408102007
:1000A0004080010204081020010204081020000012
:1000B0000008000201000003040700000000000027
:1000C0000000FB0411241FBECFEFD8E0DEBFCDBF80
:1000D00011E0A0E0B1E0E0ECFDE002C005900D927F
:1000E000A637B107D9F722E0A6E7B1E001C01D921B
:1000F000AA33B207E1F710E0C2E6D0E004C02197CE
:10010000FE010E94D806C136D107C9F70E944505F5
:100110000C94DE060C940000AF92BF92CF92DF9257
:10012000EF92FF920F931F93CF93DF936C017B01AC
:100130008B01040F151FEB015E01AE18BF08C0173D
:10014000D10759F06991D601ED91FC910190F081B0
:10015000E02DC6010995892B79F7C501DF91CF9173
:100160001F910F91FF90EF90DF90CF90BF90AF90D5
:100170000895FC01538D448D252F30E0842F90E0AD
:10018000821B930B541710F0CF9608950197089592
:10019000FC01918D828D981761F0A28DAE0FBF2F5B
:1001A000B11D5D968C91928D9F5F9F73928F90E0B1
:1001B00008958FEF9FEF0895FC01918D828D981720
:1001C00031F0828DE80FF11D858D90E008958FEF5D
:1001D0009FEF0895FC01918D228D892F90E0805C26
:1001E0009F4F821B91098F739927089585E891E0AD
:1001F0000E94EA0021E0892B09F420E0822F089573
:1002000080E090E0892B29F00E94F60081110C9487
:1002100000000895FC01A48DA80FB92FB11DA35AA9
:10022000BF4F2C91848D90E001968F739927848F16
:10023000A689B7892C93A089B1898C918370806439
:100240008C93938D848D981306C00288F389E02DDA
:1002500080818F7D80830895EF92FF920F931F938B
:10026000CF93DF93EC0181E0888F9B8D8C8D981369
:100270001AC0E889F989808185FF15C09FB7F89475
:10028000EE89FF896083E889F989808183708064C1
:1002900080839FBF81E090E0DF91CF911F910F910C
:1002A000FF90EF900895F62E0B8D10E00F5F1F4F1B
:1002B0000F731127E02E8C8D8E110CC00FB607FC2A
:1002C000FACFE889F989808185FFF5CFCE010E94B8
:1002D0000A01F1CFEB8DEC0FFD2FF11DE35AFF4F1B
:1002E000F0829FB7F8940B8FEA89FB898081806246
:1002F000CFCFCF93DF93EC01888D8823B9F0AA8903
:10030000BB89E889F9898C9185FD03C0808186FDD0
:100310000DC00FB607FCF7CF8C9185FFF2CF80811F
:1003200085FFEDCFCE010E940A01E9CFDF91CF9189
:100330000895833081F028F4813099F08230A9F05B
:1003400008958730A9F08830C9F08430B1F48091E5
:1003500080008F7D03C0809180008F778093800024
:10036000089584B58F7784BD089584B58F7DFBCFC4
:100370008091B0008F778093B00008958091B00095
:100380008F7DF9CFCF93DF93282F30E0F901E2552D
:10039000FF4F8491F901E656FF4FD491F901EA57D6
:1003A000FF4FC491CC23A1F081110E949901EC2F41
:1003B000F0E0EE0FFF1FE458FF4FA591B491EC91D0
:1003C000ED2381E090E009F480E0DF91CF91089582
:1003D00080E090E0FACF1F93CF93DF93282F30E097
:1003E000F901E255FF4F8491F901E656FF4FD49190
:1003F000F901EA57FF4FC491CC23A9F0162F8111C0
:100400000E949901EC2FF0E0EE0FFF1FEE58FF4F16
:10041000A591B4918FB7F894EC91111108C0D095C3
:10042000DE23DC938FBFDF91CF911F910895DE2BE8
:10043000F8CFCF93DF9390E0FC01E656FF4F249175
:100440008A579F4FFC0184918823D1F090E0880F58
:10045000991FFC01E859FF4FA591B491FC01EE589A
:10046000FF4FC591D491623071F49FB7F8943C91DD
:10047000822F809583238C93E8812E2B28839FBF26
:10048000DF91CF9108958FB7F894EC912E2B2C9398
:100490008FBFF6CF3FB7F89480917B0190917C019C
:1004A000A0917D01B0917E0126B5A89B05C02F3F8C
:1004B00019F00196A11DB11D3FBFBA2FA92F982F8A
:1004C0008827BC01CD01620F711D811D911D42E085
:1004D000660F771F881F991F4A95D1F708958F924D
:1004E0009F92AF92BF92CF92DF92EF92FF924B0119
:1004F0005C010E944A026B017C010E944A026C1955
:100500007D098E099F09683E734081059105A8F316
:1005100021E0821A9108A108B10888EEC80E83E094
:10052000D81EE11CF11C81149104A104B10429F727
:10053000FF90EF90DF90CF90BF90AF909F908F9003
:100540000895089590E080E00895CF93DF93EC0143
:1005500060E08E810E94EB0161E08E810E94EB01E0
:1005600060E08E810E94EB018BE891E00197F1F74A
:10057000DF91CF910895CF92DF92EF92FF920F9388
:100580001F93CF93DF936C017C0187E0E80EF11C91
:10059000D0E0C0E0062F10E0B8010C2E02C0759527
:1005A00067950A94E2F76170F70181917F010E94DB
:1005B000EB012196C430D10579F7C601DF91CF91C7
:1005C0001F910F91FF90EF90DF90CF900C94A502B8
:1005D000CF92DF92EF92FF920F931F93CF93DF930F
:1005E000EC01F62E642F8C810E94EB018D818F3FF0
:1005F00019F060E00E94EB010F2D10E08F8584FF61
:1006000025C06E0187E0C80ED11CF12CE12CB80189
:100610000E2C02C0759567950A94E2F76170F60199
:1006200081916F010E94EB01FFEFEF1AFF0A88E052
:10063000E816F10461F7CE01DF91CF911F910F9180
:10064000FF90EF90DF90CF900C94A502B80184E06A
:10065000759567958A95E1F7CE010E94BB026F2DD3
:10066000CE01DF91CF911F910F91FF90EF90DF901E
:10067000CF900C94BB0240E0682F82E292E00C9491
:10068000E80281E00E943B038BE39FE10197F1F7D1
:100690000895CF93DF93823029F4909131029860CE
:1006A00090933102809335021092360280E4809359
:1006B000370280E18093380280E58093390261E05F
:1006C000809126020E941902809127028F3F19F023
:1006D00061E00E94190261E0809128020E941902E3
:1006E000C2E2D2E09E01225232408091310284FD6A
:1006F0000BC084E090E021962817390744F461E0AC
:100700008E810E941902EECF88E090E0F4CF8BE357
:100710009DE00197F1F760E0809126020E94EB01D5
:1007200060E0809128020E94EB01809127028F3FB8
:1007300019F060E00E94EB018091310284FD34C029
:1007400063E082E292E00E94BB02CBE4D6E4CE01F9
:100750000197F1F763E082E292E00E94BB022197E9
:10076000F1F763E082E292E00E94BB0283E592E04F
:100770000197F1F762E082E292E00E94BB02809171
:10078000310280620E943B0384E0809332028CE05D
:100790000E943B030E94410382E08093330286E083
:1007A000DF91CF910C943B0380620E943B038BE46A
:1007B00096E40197F1F78091310280620E943B0339
:1007C00083E592E00197F1F78091310280620E9407
:1007D0003B03D5CF90913502891710F08FEF890F29
:1007E000E82FF0E0EE5DFD4F848980680C943B03B8
:1007F00041E00E94E80281E090E00895FB01019051
:100800000020E9F73197AF01461B570BDC01ED9152
:10081000FC910280F381E02D09948F929F92AF9218
:10082000BF92EF92FF920F931F93CF93DF93CDB7B9
:10083000DEB7A1970FB6F894DEBF0FBECDBF7C0127
:10084000FA01CB0119A2223008F42AE08E010F5DD3
:100850001F4F822E912CB12CA12CBF01A501940118
:100860000E94B606F901CA016A300CF5605DD80134
:100870006E938D01232B242B252B79F790E080E0BC
:10088000109721F0BD01C7010E94FE03A1960FB68B
:10089000F894DEBF0FBECDBFDF91CF911F910F91B6
:1008A000FF90EF90BF90AF909F908F900895695CFC
:1008B000DECF1F920F920FB60F9211242F933F930A
:1008C0004F935F936F937F938F939F93AF93BF9358
:1008D000EF93FF9385E891E00E940A01FF91EF9169
:1008E000BF91AF919F918F917F916F915F914F9148
:1008F0003F912F910F900FBE0F901F9018951F9250
:100900000F920FB60F9211242F938F939F93EF9313
:10091000FF93E0919501F09196018081E0919B0118
:10092000F0919C0182FD1BC0908180919E018F5FA0
:100930008F7320919F01821741F0E0919E01F0E0BA
:10094000EB57FE4F958F80939E01FF91EF919F9102
:100950008F912F910F900FBE0F901F90189580814F
:10096000F4CF1F920F920FB60F9211242F933F9343
:100970008F939F93AF93BF9380917701909178016C
:10098000A0917901B0917A013091760123E0230F93
:100990002D3758F50196A11DB11D20937601809346
:1009A000770190937801A0937901B0937A018091B7
:1009B0007B0190917C01A0917D01B0917E01019617
:1009C000A11DB11D80937B0190937C01A0937D01BB
:1009D000B0937E01BF91AF919F918F913F912F91E5
:1009E0000F900FBE0F901F90189526E8230F0296C8
:1009F000A11DB11DD2CFE5E8F1E01382128288EE8D
:100A000093E0A0E0B0E084839583A683B78384E07D
:100A100091E09183808385EC90E09587848784ECD6
:100A200090E09787868780EC90E0918B808B81ECBB
:100A300090E0938B828B82EC90E0958B848B86EC9C
:100A400090E0978B868B118E128E138E148EE2E2BD
:100A5000F2E01382128286E191E09183808382E04A
:100A600084838FEF858383E0868384E0878385E0BA
:100A7000808786E0818787E08287138614861586C3
:100A80001686178681E00C944903789484B58260B9
:100A900084BD84B5816084BD85B5826085BD85B522
:100AA000816085BD80916E00816080936E001092A0
:100AB000810080918100826080938100809181001B
:100AC00081608093810080918000816080938000AC
:100AD0008091B10084608093B1008091B00081600A
:100AE0008093B00080917A00846080937A00809136
:100AF0007A00826080937A0080917A00816080938E
:100B00007A0080917A00806880937A001092C10008
:100B100062E083E10E941902E0919501F091960153
:100B200082E08083E0919101F09192011082E09146
:100B30009301F09194018FEC808310929D01E091DC
:100B40009901F0919A0186E08083E0919701F091FC
:100B50009801808180618083E0919701F0919801F4
:100B6000808188608083E0919701F0919801808175
:100B700080688083E0919701F091980180818F7D5A
:100B8000808361E089E00E94190261E088E00E94B0
:100B9000190261E08DE00E94190282E00E9449037F
:100BA0000E94410380E00E94EA036EE171E082E26C
:100BB00092E00E94FE0381E00E94EA036FE271E08E
:100BC00082E292E00E94FE0360ED77E080E090E038
:100BD0000E946F020E944103C0E0D0E004E610E0F2
:100BE000AA24A394B12C8EE00E94C20190938401A8
:100BF000809383016C01990FEE08FF082AE0B7018A
:100C0000A601F7FE0DC06DE285E891E00E942C017F
:100C100044275527BA014C195D096E097F092AE05E
:100C200085E891E00E940D0460E471E085E891E0C0
:100C30000E94FE038091830190918401892B09F425
:100C40007DC0109382010093810183E10E94C20163
:100C5000892B51F4B0928001A0927F0164E670E08C
:100C600080E090E00E946F0280E00E94EA0363E46B
:100C700071E082E292E00E94FE03C0908101D09078
:100C800082010D2C000CEE08FF082AE0B701A60136
:100C9000F7FE0EC041E06DE282E292E00E94E802BF
:100CA00044275527BA014C195D096E097F092AE0CE
:100CB00082E292E00E940D0460E571E082E292E03F
:100CC0000E94FE0381E00E94EA03809181019091DD
:100CD00082014F97C4F180917F0190918001892B0F
:100CE00021F461E08DE00E94EB0164E571E082E2B5
:100CF00092E00E94FE0360E088E00E94EB0161E068
:100D000089E00E94EB016CE271E080E090E00E94DB
:100D10006F0260E08DE00E94EB0164E670E080E02D
:100D200090E00E946F02209709F45DCF0E94F600C8
:100D3000882309F458CF0E94000055CF10928201F9
:100D40001092810182CF1092800110927F0165E69E
:100D500071E082E292E00E94FE0361E088E00E947E
:100D6000EB0160E089E00E94EB01D3CFA1E21A2EF3
:100D7000AA1BBB1BFD010DC0AA1FBB1FEE1FFF1F3F
:100D8000A217B307E407F50720F0A21BB30BE40B8F
:100D9000F50B661F771F881F991F1A9469F76095D6
:100DA0007095809590959B01AC01BD01CF01089590
:100DB000EE0FFF1F0590F491E02D0994F894FFCFFA
:100DC000000000002C018C00B9007901EA00C80085
:100DD000DC0000000000F8038C00A202A102202029
:100DE0002057656C636F6D6520546F2020200020B4
:100DF0005261696E20204465746563746F722000CF
:100E00000D0A005261696E204C6576656C3A2000CF
:100E1000252020005261696E20416C6572742E2E6F
:100E20002E212121002E2E2E2E2E4E6F726D616CE2
:060E30002E2E2E2E2E00D6
:107E0000112484B714BE81FFF0D085E080938100F7
:107E100082E08093C00088E18093C10086E0809377
:107E2000C20080E18093C4008EE0C9D0259A86E02C
:107E300020E33CEF91E0309385002093840096BBD3
:107E4000B09BFECF1D9AA8958150A9F7CC24DD24C4
:107E500088248394B5E0AB2EA1E19A2EF3E0BF2EE7
:107E6000A2D0813461F49FD0082FAFD0023811F036
:107E7000013811F484E001C083E08DD089C08234E0
:107E800011F484E103C0853419F485E0A6D080C0E4
:107E9000853579F488D0E82EFF2485D0082F10E0AE
:107EA000102F00270E291F29000F111F8ED06801E7
:107EB0006FC0863521F484E090D080E0DECF843638
:107EC00009F040C070D06FD0082F6DD080E0C81688
:107ED00080E7D80618F4F601B7BEE895C0E0D1E017
:107EE00062D089930C17E1F7F0E0CF16F0E7DF06D8
:107EF00018F0F601B7BEE89568D007B600FCFDCFD4
:107F0000A601A0E0B1E02C9130E011968C91119780
:107F100090E0982F8827822B932B1296FA010C0160
:107F200087BEE89511244E5F5F4FF1E0A038BF0790
:107F300051F7F601A7BEE89507B600FCFDCF97BE46
:107F4000E89526C08437B1F42ED02DD0F82E2BD052
:107F50003CD0F601EF2C8F010F5F1F4F84911BD097
:107F6000EA94F801C1F70894C11CD11CFA94CF0C13
:107F7000D11C0EC0853739F428D08EE10CD085E9AC
:107F80000AD08FE07ACF813511F488E018D01DD067
:107F900080E101D065CF982F8091C00085FFFCCF94
:107FA0009093C60008958091C00087FFFCCF809118
:107FB000C00084FD01C0A8958091C6000895E0E648
:107FC000F0E098E1908380830895EDDF803219F02E
:107FD00088E0F5DFFFCF84E1DECF1F93182FE3DFCA
:107FE0001150E9F7F2DF1F91089580E0E8DFEE27F6
:047FF000FF270994CA
:027FFE00040479
:00000001FF
